:020000040800F2
:1000000000000120F10E0008410F0008410F000818
:10001000410F0008410F0008410F000800000000D8
:10002000000000000000000000000000410F000878
:10003000410F000800000000410F0008190E0008E1
:1000400000000000410F0008410F0008410F0008A8
:10005000410F0008410F0008ED06000819070008CD
:10006000410F0008410F0008410F00080000000088
:100070000000000000000000000000000000000080
:100080000000000000000000410F00080000000018
:10009000000000000000000000000000410F000808
:1000A000410F0008410F0008410F0008410F0008F0
:1000B000410F0008410F000800000000410F000838
:1000C000410F0008410F0008410F0008410F0008D0
:1000D000410F0008000000000000000000000000C8
:1000E000410F0008410F0008410F00080000000008
:1000F0000000000000000000000000000000000000
:1001000000000000410F000800000000410F00083F
:1001100000000000000000000000000000000000DF
:1001200000000000000000000000000000000000CF
:1001300000000000000000000000000000000000BF
:10014000000000000000000000000000410F000857
:10015000000000000000000000000000000000009F
:10016000410F0008410F00080000000000000000DF
:10017000000000000000000000000000000000007F
:1001800000000000410F0008000000000000000017
:04019000410F000813
:1001940010B5054C237833B9044B13B10448AFF3BD
:1001A40000800123237010BD000000200000000027
:1001B4008C0F000808B5034B1BB103490348AFF388
:1001C400008008BD00000000040000208C0F00081F
:1001D40080B582B000AF00233B7101237B713B1DCE
:1001E4001946274800F0A8FA01233B7101237B71CB
:1001F4003B1D1946224800F09FFA02233B7101235C
:100204007B713B1D19461E4800F096FA03233B718F
:1002140001237B713B1D1946194800F08DFA042314
:100224003B7104237B710223FB713B1D1946144867
:1002340000F082FA05233B7104237B710223FB71D6
:100244003B1D19460E4800F077FA06233B71042340
:100254007B710223FB713B1D1946094800F06CFABF
:1002640007233B7104237B710223FB713B1D194659
:10027400034800F061FA00BF0837BD4680BD00BFE7
:100284000004024090B587B000AF012204212C483D
:1002940000F068FC01220521294800F063FC0122DA
:1002A4000621274800F05EFC01220721244800F0C3
:1002B40059FCFF237B75234B3C1D0FCB84E80F00B7
:1002C4000423BB7533E0BB7D002219461C4800F0B3
:1002D40049FC0023FB751EE0FB7D1946184800F01D
:1002E40069FC0346002B13D100BFFB7D194614485B
:1002F40000F060FC0346002BF7D0FA7DBB7D043B85
:10030400920007F118010A441344143B1B7812E0CD
:10031400FB7D0133FB75FB7D032BDDD9BB7D012206
:100324001946074800F01EFCBB7D0133BB75BB7D3D
:10033400072BC8D97B7D18461C37BD4690BD00BF2E
:1003440000040240A40F000880B485B000AF7860B8
:100354000023FB600BE00023BB6002E0BB680133B9
:10036400BB60BB68FE2BF9D9FB680133FB60FA68FC
:100374007B689A42EFD300BF1437BD465DF8047B17
:100384007047000080B582B000AF04237B71022364
:10039400FB7108233B713B1D1946424800F0CCF920
:1003A40004237B710223FB7109233B713B1D194616
:1003B4003C4800F0C1F904237B710223FB710A233A
:1003C4003B713B1D1946374800F0B6F904237B7195
:1003D4000223FB7100233B713B1D1946314800F099
:1003E400ABF904237B710223FB7101233B713B1D99
:1003F40019462C4800F0A0F904237B710223FB71F9
:1004040002233B713B1D1946264800F095F904234D
:100414007B710223FB7103233B713B1D1946214869
:1004240000F08AF904237B710223FB7104233B71DE
:100434003B1D19461B4800F07FF904237B710223FE
:10044400FB7105233B713B1D1946164800F074F9F6
:1004540004237B710223FB7106233B713B1D194668
:10046400104800F069F904237B710223FB71072310
:100474003B713B1D19460B4800F05EF900220A212E
:10048400084800F06FFB00220821064800F06AFBD0
:1004940000220921034800F065FB00BF0837BD4670
:1004A40080BD00BF0000024080B500AF01220A21D8
:1004B400064800F057FB3220FFF746FF00220A21CE
:1004C400024800F04FFB00BF80BD00BF00000240A7
:1004D40080B500AF1420FFF737FFFFF753FF0F205D
:1004E400FFF732FF00F0EAF8382000F00BF806209E
:1004F40000F008F8802000F005F80F2000F002F862
:1005040000BF80BD80B582B000AF0346FB710022FE
:100514000921324800F026FB002208212F4800F070
:1005240021FBFB7903F00103DBB21A4600212B48BF
:1005340000F018FBFB795B10DBB203F00103DBB2C4
:100544001A460121254800F00DFBFB799B10DBB214
:1005540003F00103DBB21A460221204800F002FB3B
:10056400FB79DB10DBB203F00103DBB21A46032193
:100574001A4800F0F7FAFB791B11DBB203F0010310
:10058400DBB21A460421154800F0ECFAFB795B1142
:10059400DBB203F00103DBB21A4605210F4800F079
:1005A400E1FAFB799B11DBB203F00103DBB21A46DB
:1005B40006210A4800F0D6FAFB79DB09DBB21A46B9
:1005C4000721064800F0CEFA0120FFF7BDFEFFF731
:1005D4006BFF00BF0837BD4680BD00BF000002406E
:1005E40080B582B000AF0346FB7100220921324876
:1005F40000F0B8FA012208212F4800F0B3FAFB7981
:1006040003F00103DBB21A4600212B4800F0AAFADA
:10061400FB795B10DBB203F00103DBB21A46012164
:10062400254800F09FFAFB799B10DBB203F001032D
:10063400DBB21A460221204800F094FAFB79DB1061
:10064400DBB203F00103DBB21A4603211A4800F0BF
:1006540089FAFB791B11DBB203F00103DBB21A4602
:100664000421154800F07EFAFB795B11DBB203F03C
:100674000103DBB21A4605210F4800F073FAFB7937
:100684009B11DBB203F00103DBB21A4606210A48D0
:1006940000F068FAFB79DB09DBB21A460721064849
:1006A40000F060FA0120FFF74FFEFFF7FDFE00BFE8
:1006B4000837BD4680BD00BF0000024080B500AFD2
:1006C4000120FFF71FFF00BF80BD80B582B000AFDF
:1006D4000346FB71FB793033DBB21846FFF780FF2A
:1006E40000BF0837BD4680BD80B500AF074B1B680F
:1006F400002B08D0064B5B69054A43F001035361A4
:10070400024B1B68984700BF80BD00BF1C0000203F
:10071400003C014080B500AF054B5B69044A43F0DF
:1007240002035361034B5B68984700BF80BD00BF61
:10073400003C01401C00002080B483B000AF78600E
:1007440039603B685B78012B07D03B685B78022BF0
:1007540003D03B685B78032B54D17B681B683A68F1
:1007640012785200032101FA02F2D2431A407B6844
:100774001A603B685B78022B2AD0032B02D0012B32
:100784000DD0E8E17B68DB683A68127852000321F7
:1007940001FA02F2D2431A407B68DA6031E07B68E6
:1007A400DB683A6812785200012101FA02F21A4316
:1007B4007B68DA607B68DB683A6812785200013241
:1007C400012101FA02F2D2431A407B68DA6018E090
:1007D4007B68DB683A6812785200012101FA02F260
:1007E400D2431A407B68DA607B68DB683A68127827
:1007F40052000132012101FA02F21A437B68DA60E5
:10080400A9E1A8E13B685B78052B04D03B685B78E1
:10081400042B40F0AC807B681B683A681278520065
:10082400012101FA02F21A437B681A607B681B6893
:100834003A68127852000132012101FA02F2D243DD
:100844001A407B681A603B685B78042B02D0052B46
:100854000CD016E07B685B683A6812781146012276
:100864008A40D2431A407B685A600AE07B685B681E
:100874003A681278114601228A401A437B685A600A
:1008840000BF3B68DB78032B00F2648101A252F8BD
:1008940023F000BFA9080008DD0800080F090008BC
:1008A400410900087B689B683A681278520001216C
:1008B40001FA02F2D2431A407B689A607B689B6813
:1008C4003A68127852000132012101FA02F2D2434D
:1008D4001A407B689A6049E07B689B683A681278A2
:1008E4005200012101FA02F21A437B689A607B6884
:1008F4009B683A68127852000132012101FA02F22F
:10090400D2431A407B689A6030E07B689B683A68FF
:1009140012785200012101FA02F2D2431A407B6894
:100924009A607B689B683A68127852000132012110
:1009340001FA02F21A437B689A6017E07B689B68AD
:100944003A6812785200012101FA02F21A437B68D4
:100954009A607B689B683A681278520001320121E0
:1009640001FA02F21A437B689A6000BFF2E03B6826
:100974005B78082B08D03B685B78072B04D03B6876
:100984005B78062B40F0E7807B681B683A68127836
:100994005200012101FA02F2D2431A407B681A6024
:1009A4007B681B683A68127852000132012101FA0F
:1009B40002F21A437B681A603B685B78062B0CD101
:1009C4007B68DB683A6812785200032101FA02F26C
:1009D400D2431A407B68DA6025E03B685B78082BD9
:1009E40003D03B685B78072B1DD13B685B78072BF2
:1009F40002D0082B0CD016E07B685B683A6812784A
:100A0400114601228A40D2431A407B685A600AE0A8
:100A14007B685B683A681278114601228A401A435F
:100A24007B685A6000BF3B681B78002B03D03B688F
:100A34001B78072B0DD87B681B6A3A68927811469D
:100A44003A681278920001FA02F21A437B681A6239
:100A54000CE07B685B6A3A68927811463A681278CF
:100A6400920001FA02F21A437B685A623B68DB780F
:100A7400032B70D801A252F823F000BF910A00089A
:100A8400C50A0008F70A0008290B00087B689B6860
:100A94003A6812785200012101FA02F2D2431A4054
:100AA4007B689A607B689B683A68127852000132CE
:100AB400012101FA02F2D2431A407B689A604AE0AB
:100AC4007B689B683A6812785200012101FA02F2AD
:100AD4001A437B689A607B689B683A681278520074
:100AE4000132012101FA02F2D2431A407B689A6072
:100AF40031E07B689B683A6812785200012101FA60
:100B040002F2D2431A407B689A607B689B683A6819
:100B1400127852000132012101FA02F21A437B6871
:100B24009A6018E07B689B683A6812785200012149
:100B340001FA02F21A437B689A607B689B683A6800
:100B4400127852000132012101FA02F21A437B6841
:100B54009A6000E000BF00BF0C37BD465DF8047B1F
:100B6400704700BF80B483B000AF78600B46FB7061
:100B74001346BB70BB78012B09D17B685B69FA789B
:100B8400012101FA02F21A437B685A610CE0BB7836
:100B9400002B09D17B685B69FA78012101FA02F222
:100BA400D2431A407B685A6100BF0C37BD465DF8DA
:100BB400047B704780B483B000AF78600B46FB7051
:100BC4007B681B69FA78012101FA02F21A40FB786A
:100BD40022FA03F3012B01D1012300E0002318467C
:100BE4000C37BD465DF8047B7047000080B485B0C7
:100BF40000AF78607B681B78FB73FB7B002B19D1FB
:100C0400534B1B68524A43F00103136000BF504B1F
:100C14001B6803F00203002BF9D04D4B9B684C4A30
:100C240023F0010393604A4B9B68494A23F0020373
:100C3400936087E0FB7B012B2FD17B685B78BB73D0
:100C4400BB7B002B06D1424B1B68414A23F4802313
:100C5400136008E0BB7B012B05D13D4B1B683C4A6C
:100C640043F4802313603A4B1B68394A43F48033BE
:100C7400136000BF364B1B6803F40033002BF9D01C
:100C8400334B9B68324A43F001039360304B9B68BB
:100C94002F4A23F00203936054E0FB7B022B30D1F4
:100CA4002B4B5B687A6812791146294A0B435360CF
:100CB400274B5B687A68D28892011146244A0B4319
:100CC4005360234B5B687A68527912041146204AB8
:100CD4000B4353601E4B5B687A68127A9205114687
:100CE4001B4A0B4353601A4B1B68194A43F0807329
:100CF400136000BF164B1B6803F00073002BF9D080
:100D040020E0FB7B032B1DD1114B5B687A681279C1
:100D140011460F4A0B4353600D4B5B687A68127A95
:100D2400920511460A4A0B435360094B1B68084A53
:100D340043F08063136000BF054B1B6803F000633E
:100D4400002BF9D000BF1437BD465DF8047B704713
:100D54000038024080B483B000AF03460A46FB71FA
:100D64001346BB71BB79032B36D801A252F823F08A
:100D7400850D00089B0D0008B10D0008C70D000883
:100D8400184B1B6BFA79012101FA02F21146154A3C
:100D94000B43136320E0134B5B6BFA79012101FAD7
:100DA40002F211460F4A0B43536315E00D4B1B6CC3
:100DB400FA79012101FA02F211460A4A0B4313643B
:100DC4000AE0084B5B6CFA79012101FA02F2114640
:100DD400044A0B43536400BF00BF0C37BD465DF8A3
:100DE400047B70470038024080B400AF084B1B6896
:100DF400074A23F004031360054B1B68044A43F0BD
:100E04000203136000BFBD465DF8047B704700BF5A
:100E140010E000E080B500AF044B1B68002B02D04B
:100E2400024B1B68984700BF80BD00BF58000020DC
:100E340080B584B000AFFFF7D7FF00233B710023D8
:100E4400BB710023FB713B1D1846FFF7CFFEBB7936
:100E5400FA7911461846FFF77DFF0123BB71002381
:100E6400FB71BB79FA7911461846FFF773FF042327
:100E74007B7000233B700023FB703B4619461A48E5
:100E8400FFF75AFC04237B7001233B700023FB70A3
:100E94003B4619461448FFF74FFC04237B7002239A
:100EA4003B700023FB703B4619460F48FFF744FC98
:100EB40004237B7003233B700023FB703B461946DD
:100EC4000948FFF739FCFFF703FBFFF781F900BF7F
:100ED400FFF7D8F90346FF2BFAD0FFF7D3F90346FF
:100EE4001846FFF7F2FBF2E7000002400D48854682
:100EF400AFF300800C480D490D4A002302E0D4589A
:100F0400C4500433C4188C42F9D30A4A0A4C00234F
:100F140001E013600432A242FBD300F011F8FFF7A2
:100F240087FFFEE7000001200000002000000020F1
:100F3400BC0F0008000000205C000020FEE7000059
:100F440070B50D4E0D4CA41BA4100025A54209D16B
:100F54000B4E0C4C00F018F8A41BA4100025A5425D
:100F640005D170BD56F8253098470135EEE756F89F
:100F7400253098470135F2E7B40F0008B40F000894
:100F8400B40F0008B80F0008F8B500BFF8BC08BCDF
:100F94009E467047F8B500BFF8BC08BC9E46704733
:100FA4000708090004050600030201000000000010
:040FB400B901000877
:040FB8009501000897
:0400000508000EF1F0
:00000001FF
